S0120000484453505F77617463682E737265636D
S113000013C22DC2BBC32BC22AC229C228C227C213
S113001026C225C224C223C222C221C220C275C55F
S113002064C553C542C532C522C512C5B300A70075
S11300309E0095008E0086007E00740067005C00C0
S113004050004400446563656D626572203230007F
S11300504E6F76656D626572203230004F63746F47
S11300606265722032300053657074656D6265722A
S113007020323000417567757374203230004A7540
S11300806C79203230004A756E65203230004D6143
S11300907920323000417072696C203230004D6139
S11300A0726368203230004665627275617279202D
S11300B03230004A616E75617279203230000A0173
S11300C00001F400E900E000D500CC0053756E6433
S11300D061792C200053617475726461792C20005D
S11300E04672696461792C20005468757273646186
S11300F0792C20005765646E65736461792C200047
S1130100547565736461792C20004D6F6E64617958
S11301102C2000000000000000005F000000070029
S11301200700147F147F14242A7F2A1223130864DF
S11301306236495522500005030000001C2241008C
S11301400041221C00082A1C2A0808083E0808004E
S11301505030000008080808080060600000201003
S11301600804023E5149453E00427F40004261512D
S113017049462141454B311814127F102745454506
S1130180393C4A4949300171090503364949493620
S1130190064949291E003636000000563600000084
S11301A008142241141414141441221408000201E6
S11301B0510906324979413E7E1111117E7F494928
S11301C049363E414141227F4141221C7F494949F0
S11301D0417F090901013E414151327F0808087FEE
S11301E000417F41002040413F017F081422417FAC
S11301F0404040407F0204027F7F0408107F3E415C
S113020041413E7F090909063E4151215E7F09199A
S11302102946464949493101017F01013F40404097
S11302203F1F2040201F7F2018207F631408146381
S11302300304780403615149454300007F414102AE
S11302400408102041417F000004020102044040E0
S1130250404040000102040020545454787F484434
S113026044383844444420384444487F385454542F
S113027018087E090102081454543C7F08040478C9
S113028000447D40002040443D00007F102844008D
S1130290417F40007C041804787C080404783844C6
S11302A04444387C14141408081414187C7C08047E
S11302B004084854545420043F4440203C40402007
S11302C07C1C2040201C3C4030403C4428102844E6
S11302D00C5050503C4464544C44000836410000D7
S11302E0007F0000004136080008082A1C08081C8A
S11302F02A080801030A0313031C0325032E0337EA
S113030003596561723A20202000446174653A20E3
S11303102020004D6F6E3A20202020004461793A5D
S113032020202020005365633A20202020004D69BE
S11303306E3A2020202000486F75723A2020200059
S1130340C703BB03B203A903A2039A03920388035E
S11303507B03700364035803446563656D626572CF
S1130360203230004E6F76656D6265722032300047
S11303704F63746F62657220323000536570746528
S11303806D62657220323000417567757374203276
S113039030004A756C79203230004A756E6520321F
S11303A030004D617920323000417072696C203226
S11303B030004D61726368203230004665627275A8
S11303C0617279203230004A616E7561727920322F
S11303D030001E0414040804FD03F403E903E003DD
S11303E053756E6461792C20005361747572646175
S11303F0792C20004672696461792C200054687558
S113040072736461792C20005765646E657364614E
S1130410792C2000547565736461792C20004D6F2C
S11304206E6461792C20000011241FBECFE5D2E058
S1130430DEBFCDBF10E0A0E6B0E0E4E9F3E102C026
S113044005900D92A837B107D9F720E0A8E7B0E0EE
S113045001C01D92AC37B207E1F7D7D199C7D0CD0F
S1130460FF920F931F93CF93DF93EC01E3D380EDBF
S113047026D480E024D488E08A95F1F7F0D385E08F
S11304808A95F1F7000081ED1AD480E03FD4F82E6C
S113049080E03CD4082F81E039D4182F8DE08A9570
S11304A0F1F70000F8D38F2D8F7080638F838F2D29
S11304B0807782958F7080638E839AE39D83802FEB
S11304C08F7080638C83007702950F7000630B83B9
S11304D09A83812F8F7080638983107312951F70A4
S11304E010631883DF91CF911F910F91FF900895AE
S11304F0CF92DF92EF92FF920F931F93CF93DF93EC
S1130500CDB7DEB72E970FB6F894DEBF0FBECDBFC2
S11305108C0190D380EDD3D383E0D1D388E08A9546
S1130520F1F79DD385E08A95F1F7000081EDC7D3FB
S113053080E0ECD3D82E80E0E9D3C82E80E0E6D367
S1130540F82E81E0E3D3E82EA6D3ED2DF0E0319729
S1130550EE0FFF1FE254FF4F65917491CE01019697
S1130560EFD6BE016F5F7F4FC801F8D68C2D829500
S11305708F70806389838C2D8F7080638A8380E27F
S11305808B831C82BE016F5F7F4FC801E7D6EF2DBE
S1130590EF77E03108F0E650F0E03197EE0FFF1FFF
S11305A0E45DFF4F65917491CE010196C9D6BE01F9
S11305B06F5F7F4FC801D2D68E2D82958F70806376
S11305C089838E2D8F7080638A831B82BE016F5F47
S11305D07F4FC801C3D62E960FB6F894DEBF0FBE68
S11305E0CDBFDF91CF911F910F91FF90EF90DF90DE
S11305F0CF9008951FD380ED62D380E060D380E074
S11306005ED380E05CD380E05AD345D308958F92C3
S11306109F92AF92BF92EF92FF920F931F93CF934B
S1130620DF937C014A015B01122F4AC01FBCD0E05A
S113063034C0F701EC0FF11D3197808190E0FC018B
S1130640EE0FFF1FEE0FFF1FE80FF91FED0FF11D57
S1130650ED58FF4F8491880F112339F0002E01C00B
S1130660880F0A94EAF7C9D208C090E0002E02C0AD
S1130670959587950A94E2F7C0D2C15001C0C8E0AD
S1130680C111D7CF80EF8A95F1F780EF8A95F1F702
S11306908AEB8A95F1F700C0DF5FD53080F36FB540
S11306A070E080E090E0D9D32FE632E143E05CE3F0
S11306B064D49B01AC01C501B40168D34B015C0156
S11306C020E030E0A901C501B40153D418160CF49C
S11306D0ADCFDF91CF911F910F91FF90EF90BF901D
S11306E0AF909F908F9008950F9300E021E08FDFEB
S11306F00F910895AF92BF92CF92DF92EF92FF9243
S11307000F93CF93DF935C016A017B01D8E0C1E0D2
S11307100C2F21E0B701A601C50179DFD150CF5FCD
S1130720D111F6CFDF91CF910F91FF90EF90DF9031
S1130730CF90BF90AF900895AF92BF92CF92DF92C7
S1130740EF92FF920F93CF93DF935C016A017B01D9
S1130750D8E0C7E00C2F20E0B701A601C50157DFA0
S1130760D150C150D111F6CFDF91CF910F91FF90AD
S1130770EF90DF90CF90BF90AF9008951F920F92AB
S11307800FB60F9211248F9380E185BF8F910F9044
S11307900FBE0F901F90189580E886BD16BC8FE0A1
S11307A087BB089580E28BBF80E185BB7894089570
S11307B01BBE15BAF894089582E087B986B18760A4
S11307C086B9089586B1806886B986B1806486B991
S11307D0349BFECF86B1806186B986B18F7786B9A6
S11307E024B185B190E0982F8827822B08958A3010
S11307F058F06AE051D4392F90E082959295907F19
S11308009827807F9827832B0895CF93DF93CDB7C4
S1130810DEB7C554D1090FB6F894DEBF0FBECDBF05
S113082018AE19AE1AAE1BAE1CAE1DAE1EAE87E0DE
S1130830E6E6F0E0DE01DF9601900D928A95E1F79D
S1130840ABDFC5D1B9DFE6D1D5DEACDF85B78061DA
S113085085BFD12C85B7806285BF8895A9DF47E322
S113086050E060E270E0CE01019671D588B38860F3
S113087088BBA8DF8B5E914065E070E019D45B0112
S1130880AA0CBB1CAA0CBB1C88B3877F88BBCA2CD0
S113089010E02FC088E090E032D47C01E1DD48E034
S11308A050E0B701CE01099664D59FD125ED2A9574
S11308B0F1F7000040E050E06AEF72E481E090E07C
S11308C08C0F9D1F810F911D0FDF1F5F193031F4B5
S11308D067E16D1528F0D39418E003C0D12C01C052
S11308E0D12CC701A4D496D178E0D71202C06ADF14
S11308F05C01103178F284E6A816B1040CF079C0DA
S11309008C2D64E6C9D3B82E0F2EF5E1AF2EF02D51
S1130910A80ED12C69C08EE190E0F1D37C01E8DD12
S1130920D7010D900020E9F71197AE19BF098B2D5F
S11309308A0F0F2EF5E1AF2EF02DA80E8D01112791
S1130940A801B701CE01099614D5D8011896E1E0A3
S1130950F0E0EC0FFD1FAE0FBF1F8AE0EDE6F0E004
S113096001900D928A95E1F72A2D30E0F901319733
S113097061E070E06C0F7D1FE60FF71F85E2808356
S1130980F9013297E60FF71F4AE08C2D642F84D3C8
S113099090639083F901339761E070E06C0F7D1FE1
S11309A0E60FF71F642F78D39063908324503109A6
S11309B0E1E0F0E0EC0FFD1FE20FF31F8B2D8295B9
S11309C0807F805E8B29808310D140E050E068E412
S11309D073E481E090E08C0F9D1F8D0D911D84DEEA
S11309E0D394C70124D416D1DA1408F494CFD12CAB
S11309F0ECC075E6A71AB1088FE1A81683E0B80623
S1130A0008F0E3C00F2EF7E0DF2EF02DBFC00D2D50
S1130A1010E001501109F801EE0FFF1FED50FD4FDA
S1130A2065917491CE0101968BD4DFD040E050E003
S1130A3060EA72E4CE0101967FDE8D2D90E0FC0128
S1130A403197E730F10508F06FC0E15FFF4F09947B
S1130A5088ADCDDE982F92959F7090639F838F70A1
S1130A60806388877E0198E3E90EF11C61C089AD3B
S1130A70BEDE982F92959F7090639F838F708063E2
S1130A8088877E01E9E3EE0EF11C52C08AADAFDE29
S1130A90982F92959F7090639F838F70806388874F
S1130AA07E01FAE3EF0EF11C43C0EBADF0E0EE0F74
S1130AB0FF1FEE52FC4F65917491CE01069640D40F
S1130AC07E012BE3E20EF11C33C0ECADF0E0EE0F3F
S1130AD0FF1FE05CFC4F65917491CE01069630D403
S1130AE07E016CE3E60EF11C23C08DAD8F5F7FDECB
S1130AF0982F92959F7090639F838F7080638887EF
S1130B007E017DE3E70EF11C13C08EAD70DE982FDD
S1130B1092959F7090639F838F70806388877E0116
S1130B208EE3E80EF11C04C07E0198E3E90EF11C8B
S1130B305CD040E050E066E173E4CE010196D4DD80
S1130B4069D040DE8436910524F4F70120812F5FBB
S1130B502083F7013081EFE3F0E0EC0FFD1FE00F9D
S1130B60F11F2081231710F4F70110828556910993
S1130B708F31934008F061CFDA9437D040E050E0F1
S1130B8060EA72E4CE010196B5DD44D0D1103FCFC6
S1130B9051D080ED94D080E092D08AAD28DE8FD001
S1130BA089AD25DE8CD088AD22DE89D08BAD8F5FF8
S1130BB086D08DAD8F5F1BDE82D08CAD8F5F17DE4C
S1130BC07ED08EAD14DE7BD066D0ECDD43CE80B714
S1130BD0876080BF8AB582608ABD83B7826083BF25
S1130BE088E189BD86E088BD08951DB88DB1806116
S1130BF08DB988B38C6088BB08958FB990E007C025
S1130C008DB181608DB98DB183608DB99F5F97304F
S1130C10B8F308951DB888B3877F88BB8DB180620F
S1130C208DB980E88FB988B3856088BB8EB1806840
S1130C308EB9089587E182BF80E88FB98DB1846051
S1130C408DB98AE18A95F1F700C08EB180688EB9BA
S1130C508DB181608DB988E08A95F1F7089512BE4F
S1130C6080E88FB988E08A95F1F78DB181608DB9FC
S1130C708DE08A95F1F7000087E182BF80E18A95D3
S1130C80F1F78EB180688EB98DB181608DB988E03D
S1130C908A95F1F708958DB181608DB98DE08A95BB
S1130CA0F1F700008DB18B7F8DB980E88FB98EB1DB
S1130CB080628EB98DE08A95F1F7000008951EB820
S1130CC012BE8FB917C008B603FE0CC08DB1816087
S1130CD08DB980E28A95F1F78DB181608DB988B7BD
S1130CE0886088BF739B06C087B38E7F87BB88B339
S1130CF08E7F88BB8EB18970893029F787B3816074
S1130D0087BB88B3816088BB1FB80895382F1EB88D
S1130D1012BE87B38E7F87BB88B38E7F88BB20E0EB
S1130D2080E026C008B603FE0DC09DB191609DB958
S1130D309AE39A95F1F700C09DB191609DB998B777
S1130D40986098BF739B14C0211112C08FB197B3E0
S1130D50916097BB311105C098B39E7F98BB21E089
S1130D6007C09FB190689FB998B3916098BB21E088
S1130D709EB199709930B1F6332319F09EB1906801
S1130D809EB998B3916098BB1FB808955058BB277B
S1130D90AA270ED0B4C0A5D030F0AAD020F031F4E8
S1130DA09F3F11F41EF49AC00EF4E095E7FB90C047
S1130DB0E92FB6D080F3BA17620773078407950743
S1130DC018F071F49EF5CEC00EF4E0950B2EBA2FF8
S1130DD0A02D0B01B90190010C01CA01A00111243D
S1130DE0FF27591B99F0593F50F4503E68F11A16E9
S1130DF0F040A22F232F342F4427585FF3CF46957A
S1130E0037952795A795F0405395C9F77EF41F169B
S1130E10BA0B620B730B840BBAF09150A1F0FF0F65
S1130E20BB1F661F771F881FC2F70EC0BA0F621F51
S1130E30731F841F48F4879577956795B795F79541
S1130E409E3F08F0B3CF9395880F08F09927EE0FD3
S1130E50979587950895E89409C097FB3EF490957B
S1130E608095709561957F4F8F4F9F4F9923A9F07F
S1130E70F92F96E9BB279395F6958795779567950E
S1130E80B795F111F8CFFAF4BB0F11F460FF1BC052
S1130E906F5F7F4F8F4F9F4F16C0882311F096E9E5
S1130EA011C0772321F09EE8872F762F05C0662393
S1130EB071F096E8862F70E060E02AF09A95660F4C
S1130EC0771F881FDAF7880F9695879597F9089505
S1130ED097F99F6780E870E060E008959FEF80ECE9
S1130EE0089500240A94161617061806090608958C
S1130EF000240A9412161306140605060895092EF2
S1130F000394000C11F4882352F0BB0F40F4BF2B60
S1130F1011F460FF04C06F5F7F4F8F4F9F4F0895A0
S1130F2057FD9058440F551F59F05F3F71F0479596
S1130F30880F97FB991F61F09F3F79F0879508957B
S1130F40121613061406551FF2CF4695F1DF08C09A
S1130F50161617061806991FF1CF869571056105B7
S1130F6008940895E894BB2766277727CB0197F95F
S1130F7008956ED008F48FEF08950AD0C0CFB1DF82
S1130F8028F0B6DF18F0952309F0A2CFA7CFEBCF56
S1130F90C7DFA8F39923D9F35523C9F3950F50E07C
S1130FA0551FAA27EE27FF27BB270024089467951F
S1130FB020F4E20FF31FB41F0A1E220F331F441F35
S1130FC0AA1F6695A9F7779530F4F30FB41F0A1E8C
S1130FD0121E08F46395330F441FAA1F221F76952F
S1130FE099F7879520F4B40F0A1E121E631F440F4D
S1130FF0AA1F221F331F8695A9F7862F712D602DF6
S113100011249F5750408AF0E1F088234AF0EE0FF4
S1131010FF1FBB1F661F771F881F91505040A9F701
S11310209E3F510570F054CF9ECF5F3FECF3983E46
S1131030DCF3869577956795B795F795E7959F5F68
S1131040C1F7FE2B880F911D9695879597F9089502
S1131050990F0008550FAA0BE0E8FEEF16161706C5
S1131060E807F907C0F012161306E407F50798F02D
S1131070621B730B840B950B39F40A2661F0232B46
S1131080242B252B21F408950A2609F4A140A695C2
S11310908FEF811D811D0895991B79E004C0991F6C
S11310A0961708F0961B881F7A95C9F780950895BE
S11310B097FB072E16F4009406D077FD08D00BD0CA
S11310C007FC05D03EF4909581959F4F0895709547
S11310D061957F4F0895AA1BBB1B51E107C0AA1F4E
S11310E0BB1FA617B70710F0A61BB70B881F991FC5
S11310F05A95A9F780959095BC01CD0108950F9359
S11311001F93CF93DF938230910510F482E090E037
S1131110E0917A00F0917B0020E030E0A0E0B0E0C4
S1131120309719F140815181028113814817590781
S1131130C8F08417950769F4109731F012960C9350
S1131140129713961C9327C000937A0010937B0088
S113115022C02115310519F04217530718F49A01DA
S1131160BD01EF01DF01F801DBCF21153105F9F0F5
S1131170281B390B2430310580F48A819B81611549
S1131180710521F0FB019383828304C090937B005B
S113119080937A00FE01329644C0FE01E20FF31FF1
S11311A08193919322503109398328833AC0209145
S11311B0780030917900232B41F420916200309122
S11311C0630030937900209378002091600030917F
S11311D061002115310541F42DB73EB740916400FB
S11311E050916500241B350BE0917800F091790053
S11311F0E217F307A0F42E1B3F0B2817390778F0EA
S1131200AC014E5F5F4F2417350748F04E0F5F1F48
S113121050937900409378008193919302C0E0E069
S1131220F0E0CF01DF91CF911F910F910895CF93FB
S1131230DF93009709F481C0FC0132971382128274
S1131240A0917A00B0917B00109781F420813181C4
S1131250820F931F20917800309179002817390765
S113126051F5F0937900E093780067C0ED0120E038
S113127030E0CE17DF0740F44A815B819E014115BF
S11312805105F1F0EA01F5CFD383C2834081518146
S1131290840F951FC817D90759F488819981840F41
S11312A0951F0296918380838A819B819383828395
S11312B02115310529F4F0937B00E0937A003DC0B9
S11312C0E901FB83EA8349915991C40FD51FEC17B7
S11312D0FD0761F480819181840F951F0296E901D5
S11312E099838883828193819B838A83E0E0F0E001
S11312F012968D919C911397009719F0FD01DC01D2
S1131300F7CF8D919C9111979D012E5F3F4F820FD6
S1131310931F20917800309179002817390769F4D8
S1131320309729F410927B0010927A0002C0138245
S11313301282B0937900A0937800DF91CF91089541
S1131340FB01DC0105900D920020E1F70895DC011A
S113135001C06D9341505040E0F70895FB01DC015A
S11313600D900020E9F7119701900D920020E1F70C
S11313700895FB01DC014150504048F001900D926A
S11313800020C9F701C01D9241505040E0F7089574
S1071390F894FFCFFB
S113139400007C002000631E0B063B3B172C2043FB
S10B13A468617267653A2000DC
S9030000FC
